:020000040800F2
:1000000000000120DD020008290300082903000880
:100010002903000829030008290300080000000044
:10002000000000000000000000000000290300089C
:100030002903000800000000290300080D02000841
:1000400029030008290300082903000829030008E0
:1000500029030008290300082903000829030008D0
:1000600029030008290300082903000829030008C0
:1000700029030008290300082903000829030008B0
:1000800029030008290300082903000800000000D4
:10009000000000000000000000000000290300082C
:1000A0002903000829030008290300082903000880
:1000B0002903000829030008290300082903000870
:1000C0002903000829030008290300082903000860
:1000D0002903000829030008290300080000000084
:1000E0002903000829030008290300080000000074
:1000F00000000000000000000000000029030008CC
:100100000000000029030008290300082903000853
:1001100000000000000000000000000000000000DF
:1001200029030008290300082903000829030008FF
:10013000290300080000000000000000000000008B
:10014000000000000000000000000000290300087B
:1001500029030008290300082903000829030008CF
:100160002903000829030008000000000000000027
:10017000000000000000000000000000000000007F
:10018000000000002903000800000000000000003B
:040190002903000837
:1001940010B5054C237833B9044B13B10448AFF3BD
:1001A40000800123237010BD000000200000000027
:1001B4007403000808B5034B1BB103490348AFF3AC
:1001C400008008BD00000000040000207403000843
:1001D40008B500F029F800F001F8FEE74FF0E0233D
:1001E40042F603125A610749F02081F823000022E5
:1001F4009A6107221A611A6922F004021A6181F8CD
:100204002300704700ED00E008B5054A1368013388
:100214001360044B1B680BB11068984708BD00BFFE
:10022400200000201C000020264B1A6822F48022A3
:100234001A601A6842F480321A60234A5A60234AC8
:10024400C3F880201F4B1B6813F4003FFAD01D4BEA
:100254001A6842F080721A604FF480529A6003F573
:1002640080634FF4C0521A6040F202721A60184B55
:100274001B6803F00703022BF9D1124B1B6813F020
:10028400007FFAD00F4A936843F0020393600D4B4A
:100294009B6803F00C03082BF9D10A4B1A6822F06F
:1002A40001021A605A6C42F480425A64BFF34F8FC1
:1002B400A3F5803301221A62064B1B6A13F4807F74
:1002C400FAD070470038024019544127F481058060
:1002D400003C024000380140DFF830D00C480D49A2
:1002E4000D4A002302E0D458C4500433C4188C428D
:1002F400F9D30A4A0A4C002301E013600432A242F3
:10030400FBD300F011F8FFF763FF704700000120F2
:1003140000000020000000209403000800000020DA
:1003240024000020FEE7000070B50D4D0D4C641B49
:10033400A4100026A64209D10B4D0C4C00F018F86D
:10034400641BA4100026A64205D170BD55F8043BD9
:1003540098470136EEE755F8043B98470136F2E733
:100364008C0300088C0300088C0300089003000829
:10037400F8B500BFF8BC08BC9E467047F8B500BF8E
:08038400F8BC08BC9E4670475E
:04038C00B9010008AB
:0403900095010008CB
:04000005080002DD10
:00000001FF
