:020000040800F2
:10000000000001205D040008A9040008A9040008FC
:10001000A9040008A9040008A904000800000000C1
:10002000000000000000000000000000A90400081B
:10003000A904000800000000A9040008E902000863
:10004000A9040008A9040008A9040008A9040008DC
:10005000A9040008A9040008A9040008A9040008CC
:10006000A9040008A9040008A9040008A9040008BC
:10007000A9040008A9040008A9040008A9040008AC
:10008000A9040008A9040008A90400080000000051
:10009000000000000000000000000000A9040008AB
:1000A000A9040008A9040008A9040008A90400087C
:1000B000A9040008A9040008A9040008A90400086C
:1000C000A9040008A9040008A9040008A90400085C
:1000D000A9040008A9040008A90400080000000001
:1000E000A9040008A9040008A904000800000000F1
:1000F000000000000000000000000000A90400084B
:1001000000000000A9040008A9040008A9040008D0
:1001100000000000000000000000000000000000DF
:10012000A9040008A9040008A9040008A9040008FB
:10013000A90400080000000000000000000000000A
:10014000000000000000000000000000590400084A
:10015000A9040008A9040008A9040008A9040008CB
:10016000A9040008A9040008000000000000000025
:10017000000000000000000000000000000000007F
:1001800000000000A90400080000000000000000BA
:04019000A9040008B6
:1001940010B5054C237833B9044B13B10448AFF3BD
:1001A40000800123237010BD000000200000000027
:1001B400F404000808B5034B1BB103490348AFF32B
:1001C400008008BD0000000004000020F4040008C2
:1001D40008B500F097F800F06FF800F0EBF8FEE7D0
:1001E40000230F2B67D830B52AE04A6802F00302D7
:1001F400032A0CD0C2685C004FF0030C0CFA04FC18
:1002040022EA0C0C8A68A24042EA0C02C2604A68E4
:1002140002F00302022A38D002684FEA430E4FF07C
:10022400030C0CFA0EFC22EA0C0C4A6802F00302DE
:1002340002FA0EF242EA0C02026001330F2B39D8A3
:1002440001229A400C6832EA0404F6D14C6804F0A6
:10025400030C0CF1FF3CBCF1010FC6D884685D00AF
:100264004FF0030C0CFA05FC24EA0C0CCC68AC40EF
:1002740044EA0C048460446824EA02044A68C2F331
:1002840000129A4022434260AFE7DC08083450F879
:10029400245003F007024FEA820C0F2202FA0CF2F8
:1002A40025EA020E0A6902FA0CF242EA0E0240F84A
:1002B4002420B1E730BD70474FF0E02342F603122B
:1002C4005A610749F02081F8230000229A6107222D
:1002D4001A611A6922F004021A6181F82300704736
:1002E40000ED00E008B5054A136801331360044BC0
:1002F4001B680BB11068984708BD00BF20000020A0
:100304001C000020264B1A6822F480221A601A6806
:1003140042F480321A60234A5A60234AC3F8802088
:100324001F4B1B6813F4003FFAD01D4B1A6842F0B0
:1003340080721A604FF480529A6003F580634FF420
:10034400C0521A6040F202721A60184B1B6803F024
:100354000703022BF9D1124B1B6813F0007FFAD06C
:100364000F4A936843F0020393600D4B9B6803F0BC
:100374000C03082BF9D10A4B1A6822F001021A6007
:100384005A6C42F480425A64BFF34F8FA3F5803312
:1003940001221A62064B1B6A13F4807FFAD070475D
:1003A4000038024019544127F4810580003C024082
:1003B4000038014070B586B01D4D2B6B43F001032E
:1003C4002B634FF4C053019302230293002403943C
:1003D40004930A23059301A91648FFF701FF164B5E
:1003E400DB68164B83F8434308219960144A4FF0A5
:1003F400A043136013480426066013480160696B28
:1004040041F080016963812199601049D9601049E4
:1004140099614FF424119963C3F8004E13680721BE
:10042400C3F800181368C3F8044806B070BD00BFD1
:10043400003802400000024000ED00E000E100E06E
:100444002C00002028000020240000200010004080
:1004540018300C0070470000DFF830D00C480D490C
:100464000D4A002302E0D458C4500433C4188C420B
:10047400F9D30A4A0A4C002301E013600432A24271
:10048400FBD300F011F8FFF7A3FE70470000012032
:1004940000000020000000201405000800000020D7
:1004A40030000020FEE7000070B50D4D0D4C641BBC
:1004B400A4100026A64209D10B4D0C4C00F018F8EC
:1004C400641BA4100026A64205D170BD55F8043B58
:1004D40098470136EEE755F8043B98470136F2E7B2
:1004E4000C0500080C0500080C05000810050008A0
:1004F400F8B500BFF8BC08BC9E467047F8B500BF0D
:08050400F8BC08BC9E467047DC
:04050C00B901000829
:040510009501000849
:040000050800045D8E
:00000001FF
